{
    "_format": "hh-sol-artifact-1",
    "contractName": "ReportChain",
    "sourceName": "contracts/report.sol",
    "abi": [
        {
            "anonymous": false,
            "inputs": [
                {
                    "indexed": true,
                    "internalType": "address",
                    "name": "reporter",
                    "type": "address"
                },
                {
                    "indexed": false,
                    "internalType": "string",
                    "name": "message",
                    "type": "string"
                },
                {
                    "indexed": false,
                    "internalType": "uint256",
                    "name": "timestamp",
                    "type": "uint256"
                }
            ],
            "name": "NewReport",
            "type": "event"
        },
        {
            "inputs": [],
            "name": "getReports",
            "outputs": [
                {
                    "components": [
                        {
                            "internalType": "address",
                            "name": "reporter",
                            "type": "address"
                        },
                        {
                            "internalType": "string",
                            "name": "message",
                            "type": "string"
                        },
                        {
                            "internalType": "uint256",
                            "name": "timestamp",
                            "type": "uint256"
                        }
                    ],
                    "internalType": "struct ReportChain.Report[]",
                    "name": "",
                    "type": "tuple[]"
                }
            ],
            "stateMutability": "view",
            "type": "function"
        },
        {
            "inputs": [
                {
                    "internalType": "uint256",
                    "name": "",
                    "type": "uint256"
                }
            ],
            "name": "reports",
            "outputs": [
                {
                    "internalType": "address",
                    "name": "reporter",
                    "type": "address"
                },
                {
                    "internalType": "string",
                    "name": "message",
                    "type": "string"
                },
                {
                    "internalType": "uint256",
                    "name": "timestamp",
                    "type": "uint256"
                }
            ],
            "stateMutability": "view",
            "type": "function"
        },
        {
            "inputs": [
                {
                    "internalType": "string",
                    "name": "_message",
                    "type": "string"
                }
            ],
            "name": "submitReport",
            "outputs": [],
            "stateMutability": "nonpayable",
            "type": "function"
        }
    ],
    "bytecode": "0x6080604052348015600f57600080fd5b50610bf08061001f6000396000f3fe608060405234801561001057600080fd5b50600436106100415760003560e01c8063635ac1ed14610046578063a3c86daf14610062578063c942adf714610080575b600080fd5b610060600480360381019061005b9190610557565b6100b2565b005b61006a6101ca565b604051610077919061078b565b60405180910390f35b61009a600480360381019061009591906107d9565b61031b565b6040516100a99392919061086e565b60405180910390f35b600060405180606001604052803373ffffffffffffffffffffffffffffffffffffffff16815260200183815260200142815250908060018154018082558091505060019003906000526020600020906003020160009091909190915060008201518160000160006101000a81548173ffffffffffffffffffffffffffffffffffffffff021916908373ffffffffffffffffffffffffffffffffffffffff160217905550602082015181600101908161016a9190610ab8565b506040820151816002015550503373ffffffffffffffffffffffffffffffffffffffff167f584eb561d7f3a5916c8cf417eec0360517610af7a29a1785bb3d3a8117b4614682426040516101bf929190610b8a565b60405180910390a250565b60606000805480602002602001604051908101604052809291908181526020016000905b8282101561031257838290600052602060002090600302016040518060600160405290816000820160009054906101000a900473ffffffffffffffffffffffffffffffffffffffff1673ffffffffffffffffffffffffffffffffffffffff1673ffffffffffffffffffffffffffffffffffffffff168152602001600182018054610277906108db565b80601f01602080910402602001604051908101604052809291908181526020018280546102a3906108db565b80156102f05780601f106102c5576101008083540402835291602001916102f0565b820191906000526020600020905b8154815290600101906020018083116102d357829003601f168201915b50505050508152602001600282015481525050815260200190600101906101ee565b50505050905090565b6000818154811061032b57600080fd5b90600052602060002090600302016000915090508060000160009054906101000a900473ffffffffffffffffffffffffffffffffffffffff1690806001018054610374906108db565b80601f01602080910402602001604051908101604052809291908181526020018280546103a0906108db565b80156103ed5780601f106103c2576101008083540402835291602001916103ed565b820191906000526020600020905b8154815290600101906020018083116103d057829003601f168201915b5050505050908060020154905083565b6000604051905090565b600080fd5b600080fd5b600080fd5b600080fd5b6000601f19601f8301169050919050565b7f4e487b7100000000000000000000000000000000000000000000000000000000600052604160045260246000fd5b6104648261041b565b810181811067ffffffffffffffff821117156104835761048261042c565b5b80604052505050565b60006104966103fd565b90506104a2828261045b565b919050565b600067ffffffffffffffff8211156104c2576104c161042c565b5b6104cb8261041b565b9050602081019050919050565b82818337600083830152505050565b60006104fa6104f5846104a7565b61048c565b90508281526020810184848401111561051657610515610416565b5b6105218482856104d8565b509392505050565b600082601f83011261053e5761053d610411565b5b813561054e8482602086016104e7565b91505092915050565b60006020828403121561056d5761056c610407565b5b600082013567ffffffffffffffff81111561058b5761058a61040c565b5b61059784828501610529565b91505092915050565b600081519050919050565b600082825260208201905092915050565b6000819050602082019050919050565b600073ffffffffffffffffffffffffffffffffffffffff82169050919050565b60006105f7826105cc565b9050919050565b610607816105ec565b82525050565b600081519050919050565b600082825260208201905092915050565b60005b8381101561064757808201518184015260208101905061062c565b60008484015250505050565b600061065e8261060d565b6106688185610618565b9350610678818560208601610629565b6106818161041b565b840191505092915050565b6000819050919050565b61069f8161068c565b82525050565b60006060830160008301516106bd60008601826105fe565b50602083015184820360208601526106d58282610653565b91505060408301516106ea6040860182610696565b508091505092915050565b600061070183836106a5565b905092915050565b6000602082019050919050565b6000610721826105a0565b61072b81856105ab565b93508360208202850161073d856105bc565b8060005b85811015610779578484038952815161075a85826106f5565b945061076583610709565b925060208a01995050600181019050610741565b50829750879550505050505092915050565b600060208201905081810360008301526107a58184610716565b905092915050565b6107b68161068c565b81146107c157600080fd5b50565b6000813590506107d3816107ad565b92915050565b6000602082840312156107ef576107ee610407565b5b60006107fd848285016107c4565b91505092915050565b61080f816105ec565b82525050565b600082825260208201905092915050565b60006108318261060d565b61083b8185610815565b935061084b818560208601610629565b6108548161041b565b840191505092915050565b6108688161068c565b82525050565b60006060820190506108836000830186610806565b81810360208301526108958185610826565b90506108a4604083018461085f565b949350505050565b7f4e487b7100000000000000000000000000000000000000000000000000000000600052602260045260246000fd5b600060028204905060018216806108f357607f821691505b602082108103610906576109056108ac565b5b50919050565b60008190508160005260206000209050919050565b60006020601f8301049050919050565b600082821b905092915050565b60006008830261096e7fffffffffffffffffffffffffffffffffffffffffffffffffffffffffffffffff82610931565b6109788683610931565b95508019841693508086168417925050509392505050565b6000819050919050565b60006109b56109b06109ab8461068c565b610990565b61068c565b9050919050565b6000819050919050565b6109cf8361099a565b6109e36109db826109bc565b84845461093e565b825550505050565b600090565b6109f86109eb565b610a038184846109c6565b505050565b5b81811015610a2757610a1c6000826109f0565b600181019050610a09565b5050565b601f821115610a6c57610a3d8161090c565b610a4684610921565b81016020851015610a55578190505b610a69610a6185610921565b830182610a08565b50505b505050565b600082821c905092915050565b6000610a8f60001984600802610a71565b1980831691505092915050565b6000610aa88383610a7e565b9150826002028217905092915050565b610ac18261060d565b67ffffffffffffffff811115610ada57610ad961042c565b5b610ae482546108db565b610aef828285610a2b565b600060209050601f831160018114610b225760008415610b10578287015190505b610b1a8582610a9c565b865550610b82565b601f198416610b308661090c565b60005b82811015610b5857848901518255600182019150602085019450602081019050610b33565b86831015610b755784890151610b71601f891682610a7e565b8355505b6001600288020188555050505b505050505050565b60006040820190508181036000830152610ba48185610826565b9050610bb3602083018461085f565b939250505056fea2646970667358221220b4999bce20d7d198c0e30c5c44f905c86ff94738fb0bcbd1165a16b854e8c27664736f6c634300081c0033",
    "linkReferences": {},
    "deployedLinkReferences": {}
}